{
  "_format": "hh-sol-artifact-1",
  "contractName": "CrowdFunding",
  "sourceName": "contracts/CrowdFunding.sol",
  "abi": [
    {
      "inputs": [
        {
          "internalType": "string",
          "name": "msg",
          "type": "string"
        },
        {
          "internalType": "uint256",
          "name": "campaignId",
          "type": "uint256"
        }
      ],
      "name": "Closed",
      "type": "error"
    },
    {
      "inputs": [],
      "name": "campaignCounter",
      "outputs": [
        {
          "internalType": "uint256",
          "name": "",
          "type": "uint256"
        }
      ],
      "stateMutability": "view",
      "type": "function"
    },
    {
      "inputs": [
        {
          "internalType": "uint256",
          "name": "",
          "type": "uint256"
        }
      ],
      "name": "campaigns",
      "outputs": [
        {
          "internalType": "address",
          "name": "owner",
          "type": "address"
        },
        {
          "internalType": "string",
          "name": "title",
          "type": "string"
        },
        {
          "internalType": "string",
          "name": "description",
          "type": "string"
        },
        {
          "internalType": "uint256",
          "name": "target",
          "type": "uint256"
        },
        {
          "internalType": "uint256",
          "name": "deadline",
          "type": "uint256"
        },
        {
          "internalType": "uint256",
          "name": "amountCollected",
          "type": "uint256"
        },
        {
          "internalType": "string",
          "name": "image",
          "type": "string"
        }
      ],
      "stateMutability": "view",
      "type": "function"
    },
    {
      "inputs": [
        {
          "internalType": "address",
          "name": "_owner",
          "type": "address"
        },
        {
          "internalType": "string",
          "name": "_title",
          "type": "string"
        },
        {
          "internalType": "string",
          "name": "_description",
          "type": "string"
        },
        {
          "internalType": "uint256",
          "name": "_target",
          "type": "uint256"
        },
        {
          "internalType": "uint256",
          "name": "_deadline",
          "type": "uint256"
        },
        {
          "internalType": "string",
          "name": "_image",
          "type": "string"
        }
      ],
      "name": "createCampaign",
      "outputs": [
        {
          "internalType": "uint256",
          "name": "",
          "type": "uint256"
        }
      ],
      "stateMutability": "nonpayable",
      "type": "function"
    },
    {
      "inputs": [
        {
          "internalType": "uint256",
          "name": "_id",
          "type": "uint256"
        }
      ],
      "name": "fundToCampaign",
      "outputs": [],
      "stateMutability": "payable",
      "type": "function"
    },
    {
      "inputs": [],
      "name": "getCampaigns",
      "outputs": [
        {
          "components": [
            {
              "internalType": "address",
              "name": "owner",
              "type": "address"
            },
            {
              "internalType": "string",
              "name": "title",
              "type": "string"
            },
            {
              "internalType": "string",
              "name": "description",
              "type": "string"
            },
            {
              "internalType": "uint256",
              "name": "target",
              "type": "uint256"
            },
            {
              "internalType": "uint256",
              "name": "deadline",
              "type": "uint256"
            },
            {
              "internalType": "uint256",
              "name": "amountCollected",
              "type": "uint256"
            },
            {
              "internalType": "string",
              "name": "image",
              "type": "string"
            },
            {
              "internalType": "address[]",
              "name": "funders",
              "type": "address[]"
            },
            {
              "internalType": "uint256[]",
              "name": "fundedAmount",
              "type": "uint256[]"
            }
          ],
          "internalType": "struct CrowdFunding.Campaign[]",
          "name": "",
          "type": "tuple[]"
        }
      ],
      "stateMutability": "view",
      "type": "function"
    },
    {
      "inputs": [
        {
          "internalType": "uint256",
          "name": "_id",
          "type": "uint256"
        }
      ],
      "name": "getFunders",
      "outputs": [
        {
          "internalType": "address[]",
          "name": "",
          "type": "address[]"
        },
        {
          "internalType": "uint256[]",
          "name": "",
          "type": "uint256[]"
        }
      ],
      "stateMutability": "view",
      "type": "function"
    },
    {
      "inputs": [
        {
          "internalType": "uint256",
          "name": "_id",
          "type": "uint256"
        }
      ],
      "name": "getTotalAmountCollected",
      "outputs": [
        {
          "internalType": "uint256",
          "name": "",
          "type": "uint256"
        }
      ],
      "stateMutability": "view",
      "type": "function"
    }
  ],
  "bytecode": "0x608060405234801561001057600080fd5b50611b10806100206000396000f3fe6080604052600436106100705760003560e01c80639943e3a11161004e5780639943e3a114610112578063a6b036331461014f578063b84aeccc1461017a578063fca604d7146101b757610070565b8063141961bc146100755780633a7b6c74146100b85780636ab373b7146100f6575b600080fd5b34801561008157600080fd5b5061009c60048036038101906100979190610ca2565b6101e2565b6040516100af9796959493929190610daf565b60405180910390f35b3480156100c457600080fd5b506100df60048036038101906100da9190610ca2565b6103dc565b6040516100ed929190610faf565b60405180910390f35b610110600480360381019061010b9190610ca2565b6104ec565b005b34801561011e57600080fd5b5061013960048036038101906101349190611147565b6106de565b6040516101469190611228565b60405180910390f35b34801561015b57600080fd5b50610164610803565b604051610171919061150e565b60405180910390f35b34801561018657600080fd5b506101a1600480360381019061019c9190610ca2565b610bd1565b6040516101ae9190611228565b60405180910390f35b3480156101c357600080fd5b506101cc610bf0565b6040516101d99190611228565b60405180910390f35b60006020528060005260406000206000915090508060000160009054906101000a900473ffffffffffffffffffffffffffffffffffffffff169080600101805461022b9061155f565b80601f01602080910402602001604051908101604052809291908181526020018280546102579061155f565b80156102a45780601f10610279576101008083540402835291602001916102a4565b820191906000526020600020905b81548152906001019060200180831161028757829003601f168201915b5050505050908060020180546102b99061155f565b80601f01602080910402602001604051908101604052809291908181526020018280546102e59061155f565b80156103325780601f1061030757610100808354040283529160200191610332565b820191906000526020600020905b81548152906001019060200180831161031557829003601f168201915b5050505050908060030154908060040154908060050154908060060180546103599061155f565b80601f01602080910402602001604051908101604052809291908181526020018280546103859061155f565b80156103d25780601f106103a7576101008083540402835291602001916103d2565b820191906000526020600020905b8154815290600101906020018083116103b557829003601f168201915b5050505050905087565b6060806000808481526020019081526020016000206007016000808581526020019081526020016000206008018180548060200260200160405190810160405280929190818152602001828054801561048a57602002820191906000526020600020905b8160009054906101000a900473ffffffffffffffffffffffffffffffffffffffff1673ffffffffffffffffffffffffffffffffffffffff1681526020019060010190808311610440575b50505050509150808054806020026020016040519081016040528092919081815260200182805480156104dc57602002820191906000526020600020905b8154815260200190600101908083116104c8575b5050505050905091509150915091565b804260008083815260200190815260200160002060040154101561054757806040517fd02a2cae00000000000000000000000000000000000000000000000000000000815260040161053e91906115dc565b60405180910390fd5b6000806000848152602001908152602001600020905060008160000160009054906101000a900473ffffffffffffffffffffffffffffffffffffffff1673ffffffffffffffffffffffffffffffffffffffff16346040516105a79061163b565b60006040518083038185875af1925050503d80600081146105e4576040519150601f19603f3d011682016040523d82523d6000602084013e6105e9565b606091505b505090508061062d576040517f08c379a00000000000000000000000000000000000000000000000000000000081526004016106249061169c565b60405180910390fd5b3482600501600082825461064191906116eb565b9250508190555081600701339080600181540180825580915050600190039060005260206000200160009091909190916101000a81548173ffffffffffffffffffffffffffffffffffffffff021916908373ffffffffffffffffffffffffffffffffffffffff1602179055508160080134908060018154018082558091505060019003906000526020600020016000909190919091505550505050565b6000428311610722576040517f08c379a000000000000000000000000000000000000000000000000000000000815260040161071990611791565b60405180910390fd5b600080600060015481526020019081526020016000209050878160000160006101000a81548173ffffffffffffffffffffffffffffffffffffffff021916908373ffffffffffffffffffffffffffffffffffffffff1602179055508681600101908161078e919061195d565b50858160020190816107a0919061195d565b50848160030181905550838160040181905550828160060190816107c4919061195d565b506000816005018190555060018060008282546107e191906116eb565b92505081905550600180546107f69190611a2f565b9150509695505050505050565b6060600060015467ffffffffffffffff8111156108235761082261101c565b5b60405190808252806020026020018201604052801561085c57816020015b610849610bf6565b8152602001906001900390816108415790505b50905060005b600154811015610bc957600080828152602001908152602001600020604051806101200160405290816000820160009054906101000a900473ffffffffffffffffffffffffffffffffffffffff1673ffffffffffffffffffffffffffffffffffffffff1673ffffffffffffffffffffffffffffffffffffffff1681526020016001820180546108f09061155f565b80601f016020809104026020016040519081016040528092919081815260200182805461091c9061155f565b80156109695780601f1061093e57610100808354040283529160200191610969565b820191906000526020600020905b81548152906001019060200180831161094c57829003601f168201915b505050505081526020016002820180546109829061155f565b80601f01602080910402602001604051908101604052809291908181526020018280546109ae9061155f565b80156109fb5780601f106109d0576101008083540402835291602001916109fb565b820191906000526020600020905b8154815290600101906020018083116109de57829003601f168201915b50505050508152602001600382015481526020016004820154815260200160058201548152602001600682018054610a329061155f565b80601f0160208091040260200160405190810160405280929190818152602001828054610a5e9061155f565b8015610aab5780601f10610a8057610100808354040283529160200191610aab565b820191906000526020600020905b815481529060010190602001808311610a8e57829003601f168201915b5050505050815260200160078201805480602002602001604051908101604052809291908181526020018280548015610b3957602002820191906000526020600020905b8160009054906101000a900473ffffffffffffffffffffffffffffffffffffffff1673ffffffffffffffffffffffffffffffffffffffff1681526020019060010190808311610aef575b5050505050815260200160088201805480602002602001604051908101604052809291908181526020018280548015610b9157602002820191906000526020600020905b815481526020019060010190808311610b7d575b505050505081525050828281518110610bad57610bac611a63565b5b602002602001018190525080610bc290611a92565b9050610862565b508091505090565b6000806000838152602001908152602001600020600501549050919050565b60015481565b604051806101200160405280600073ffffffffffffffffffffffffffffffffffffffff16815260200160608152602001606081526020016000815260200160008152602001600081526020016060815260200160608152602001606081525090565b6000604051905090565b600080fd5b600080fd5b6000819050919050565b610c7f81610c6c565b8114610c8a57600080fd5b50565b600081359050610c9c81610c76565b92915050565b600060208284031215610cb857610cb7610c62565b5b6000610cc684828501610c8d565b91505092915050565b600073ffffffffffffffffffffffffffffffffffffffff82169050919050565b6000610cfa82610ccf565b9050919050565b610d0a81610cef565b82525050565b600081519050919050565b600082825260208201905092915050565b60005b83811015610d4a578082015181840152602081019050610d2f565b60008484015250505050565b6000601f19601f8301169050919050565b6000610d7282610d10565b610d7c8185610d1b565b9350610d8c818560208601610d2c565b610d9581610d56565b840191505092915050565b610da981610c6c565b82525050565b600060e082019050610dc4600083018a610d01565b8181036020830152610dd68189610d67565b90508181036040830152610dea8188610d67565b9050610df96060830187610da0565b610e066080830186610da0565b610e1360a0830185610da0565b81810360c0830152610e258184610d67565b905098975050505050505050565b600081519050919050565b600082825260208201905092915050565b6000819050602082019050919050565b610e6881610cef565b82525050565b6000610e7a8383610e5f565b60208301905092915050565b6000602082019050919050565b6000610e9e82610e33565b610ea88185610e3e565b9350610eb383610e4f565b8060005b83811015610ee4578151610ecb8882610e6e565b9750610ed683610e86565b925050600181019050610eb7565b5085935050505092915050565b600081519050919050565b600082825260208201905092915050565b6000819050602082019050919050565b610f2681610c6c565b82525050565b6000610f388383610f1d565b60208301905092915050565b6000602082019050919050565b6000610f5c82610ef1565b610f668185610efc565b9350610f7183610f0d565b8060005b83811015610fa2578151610f898882610f2c565b9750610f9483610f44565b925050600181019050610f75565b5085935050505092915050565b60006040820190508181036000830152610fc98185610e93565b90508181036020830152610fdd8184610f51565b90509392505050565b610fef81610cef565b8114610ffa57600080fd5b50565b60008135905061100c81610fe6565b92915050565b600080fd5b600080fd5b7f4e487b7100000000000000000000000000000000000000000000000000000000600052604160045260246000fd5b61105482610d56565b810181811067ffffffffffffffff821117156110735761107261101c565b5b80604052505050565b6000611086610c58565b9050611092828261104b565b919050565b600067ffffffffffffffff8211156110b2576110b161101c565b5b6110bb82610d56565b9050602081019050919050565b82818337600083830152505050565b60006110ea6110e584611097565b61107c565b90508281526020810184848401111561110657611105611017565b5b6111118482856110c8565b509392505050565b600082601f83011261112e5761112d611012565b5b813561113e8482602086016110d7565b91505092915050565b60008060008060008060c0878903121561116457611163610c62565b5b600061117289828a01610ffd565b965050602087013567ffffffffffffffff81111561119357611192610c67565b5b61119f89828a01611119565b955050604087013567ffffffffffffffff8111156111c0576111bf610c67565b5b6111cc89828a01611119565b94505060606111dd89828a01610c8d565b93505060806111ee89828a01610c8d565b92505060a087013567ffffffffffffffff81111561120f5761120e610c67565b5b61121b89828a01611119565b9150509295509295509295565b600060208201905061123d6000830184610da0565b92915050565b600081519050919050565b600082825260208201905092915050565b6000819050602082019050919050565b600082825260208201905092915050565b600061128b82610d10565b611295818561126f565b93506112a5818560208601610d2c565b6112ae81610d56565b840191505092915050565b600082825260208201905092915050565b60006112d582610e33565b6112df81856112b9565b93506112ea83610e4f565b8060005b8381101561131b5781516113028882610e6e565b975061130d83610e86565b9250506001810190506112ee565b5085935050505092915050565b600082825260208201905092915050565b600061134482610ef1565b61134e8185611328565b935061135983610f0d565b8060005b8381101561138a5781516113718882610f2c565b975061137c83610f44565b92505060018101905061135d565b5085935050505092915050565b6000610120830160008301516113b06000860182610e5f565b50602083015184820360208601526113c88282611280565b915050604083015184820360408601526113e28282611280565b91505060608301516113f76060860182610f1d565b50608083015161140a6080860182610f1d565b5060a083015161141d60a0860182610f1d565b5060c083015184820360c08601526114358282611280565b91505060e083015184820360e086015261144f82826112ca565b91505061010083015184820361010086015261146b8282611339565b9150508091505092915050565b60006114848383611397565b905092915050565b6000602082019050919050565b60006114a482611243565b6114ae818561124e565b9350836020820285016114c08561125f565b8060005b858110156114fc57848403895281516114dd8582611478565b94506114e88361148c565b925060208a019950506001810190506114c4565b50829750879550505050505092915050565b600060208201905081810360008301526115288184611499565b905092915050565b7f4e487b7100000000000000000000000000000000000000000000000000000000600052602260045260246000fd5b6000600282049050600182168061157757607f821691505b60208210810361158a57611589611530565b5b50919050565b7f546869732063616d706169676e20686173206265656e20636c6f736564000000600082015250565b60006115c6601d83610d1b565b91506115d182611590565b602082019050919050565b600060408201905081810360008301526115f5816115b9565b90506116046020830184610da0565b92915050565b600081905092915050565b50565b600061162560008361160a565b915061163082611615565b600082019050919050565b600061164682611618565b9150819050919050565b7f556e61626c6520746f2066756e6420746869732063616d706169676e00000000600082015250565b6000611686601c83610d1b565b915061169182611650565b602082019050919050565b600060208201905081810360008301526116b581611679565b9050919050565b7f4e487b7100000000000000000000000000000000000000000000000000000000600052601160045260246000fd5b60006116f682610c6c565b915061170183610c6c565b9250828201905080821115611719576117186116bc565b5b92915050565b7f54686520646561646c696e652073686f756c642062652061206461746520696e60008201527f2066757475726500000000000000000000000000000000000000000000000000602082015250565b600061177b602783610d1b565b91506117868261171f565b604082019050919050565b600060208201905081810360008301526117aa8161176e565b9050919050565b60008190508160005260206000209050919050565b60006020601f8301049050919050565b600082821b905092915050565b6000600883026118137fffffffffffffffffffffffffffffffffffffffffffffffffffffffffffffffff826117d6565b61181d86836117d6565b95508019841693508086168417925050509392505050565b6000819050919050565b600061185a61185561185084610c6c565b611835565b610c6c565b9050919050565b6000819050919050565b6118748361183f565b61188861188082611861565b8484546117e3565b825550505050565b600090565b61189d611890565b6118a881848461186b565b505050565b5b818110156118cc576118c1600082611895565b6001810190506118ae565b5050565b601f821115611911576118e2816117b1565b6118eb846117c6565b810160208510156118fa578190505b61190e611906856117c6565b8301826118ad565b50505b505050565b600082821c905092915050565b600061193460001984600802611916565b1980831691505092915050565b600061194d8383611923565b9150826002028217905092915050565b61196682610d10565b67ffffffffffffffff81111561197f5761197e61101c565b5b611989825461155f565b6119948282856118d0565b600060209050601f8311600181146119c757600084156119b5578287015190505b6119bf8582611941565b865550611a27565b601f1984166119d5866117b1565b60005b828110156119fd578489015182556001820191506020850194506020810190506119d8565b86831015611a1a5784890151611a16601f891682611923565b8355505b6001600288020188555050505b505050505050565b6000611a3a82610c6c565b9150611a4583610c6c565b9250828203905081811115611a5d57611a5c6116bc565b5b92915050565b7f4e487b7100000000000000000000000000000000000000000000000000000000600052603260045260246000fd5b6000611a9d82610c6c565b91507fffffffffffffffffffffffffffffffffffffffffffffffffffffffffffffffff8203611acf57611ace6116bc565b5b60018201905091905056fea2646970667358221220a75ae658305bda596779590be23f499a9e11073ab3d1a8d7be968e0384b8c34e64736f6c63430008130033",
  "linkReferences": {},
  "deployedLinkReferences": {}
}